:100000000C9463000C9447100C9474100C943C04F2
:100010000C940F040C94E2030C948B000C948B0052
:100020000C948B000C948B000C948B000C948B0024
:100030000C948B000C948B000C948B000C948B0014
:100040000C942F020C948B000C9447050C945006D2
:100050000C9409070C948B000C948B000C948B006F
:100060000C948B000C948B000000000024002700EF
:100070002A0000000000250028002B0000000000DE
:1000800023002600290004020202020204040204E2
:1000900004040404030303030303400204081020C0
:1000A000018001020408102001020408102001034D
:1000B000040600000000000000070002000000002D
:1000C00000006A04B00611241FBECFEFD8E0DEBFE7
:1000D000CDBF11E0A0E0B1E0E0EAF2E202C005909D
:1000E0000D92AE34B107D9F712E0AEE4B1E001C031
:1000F0001D92A537B107E1F710E0C6ECD0E004C0CF
:100100002297FE010E941311C23CD107C9F70E9439
:10011000490C0C944E110C940000A0E0B0E0E3E90F
:10012000F0E00C941F11EC01A880B980CA80DB803C
:10013000A114B104C104D10441F484E2A82E89EDD4
:10014000B82E8BE5C82E87E0D82EC601B5012DE16B
:1001500033EF41E050E00E94F61027EA31E440E03E
:1001600050E00E94A1107B018C01C601B5012DE178
:1001700033EF41E050E00E94F610CA01B9012CEEC5
:1001800034EF4FEF5FEF0E94A1106E0D7F1D801FB7
:10019000911F97FF04C06150704080409048688371
:1001A00079838A839B839B01AC015F77B901CA0184
:1001B000CDB7DEB7EAE00C943B110E948D000895A4
:1001C0008EE091E00E948D00089560930E0170937F
:1001D0000F0180931001909311010895FB01DC0140
:1001E00002C001900D9241505040D8F70895FB0194
:1001F000DC0101900D920020E1F70895FB019F01C1
:10020000423074F0453264F4642F77270E94C010A6
:10021000805D8A330CF0895D8193CB010097A1F753
:100220001082C9010C941401DC01FC01672F71914B
:100230007723E1F7329704C07C916D9370836291CC
:10024000AE17BF07C8F30895EF92FF920F931F9365
:10025000DF93CF93CDB7DEB727970FB6F894DEBF05
:100260000FBECDBF8CE392E00E94960B892B79F1F3
:100270008CE392E060E071E00E94D00C0EE411E0AB
:100280007E010894E11CF11CC701F80161918F0106
:1002900040E10E94C30D8CE392E0B7010E949E06EC
:1002A000C7010E94F50DF1E004351F0769F78CE3E3
:1002B00092E06AE00E94AC0C04C08CE392E00E94E1
:1002C000CA0B8CE392E00E94960B892BB1F781E078
:1002D00061E00E948E0364EF71E080E090E00E9494
:1002E000910282E10E9425038C0181E060E00E947E
:1002F0008E030337110524F48EE591E06FEF03C000
:100300008EE591E060E040E020E00E9475048EE51B
:1003100091E061E00E946B048EE591E04AE050E0DC
:1003200060E070E00E94AB048EE591E060E040E0A8
:1003300020E00E9475048EE591E048EE53E060E015
:1003400070E00E94AB0427960FB6F894DEBF0FBE94
:10035000CDBFCF91DF911F910F91FF90EF90089546
:100360001F93CF93DF938CE392E00E94C60981E054
:1003700061E00E944F0310E0C0E0D0E084E591E02E
:10038000BE010E941C02FE01E25BFE4F80838F3F94
:1003900009F011E02196C630D10581F71123D9F477
:1003A00080E00E9425030E94280DC0E0D0E060E0BC
:1003B00071E080E090E00E94060D462FFE01E25BB6
:1003C000FE4F608384E591E0BE010E9423022196E6
:1003D000C630D10561F760914E0170E04091500147
:1003E00050E02091520130E080914F0190E008965A
:1003F00002C0660F771F8A95E2F78091510190E065
:10040000089602C0440F551F8A95E2F78091530168
:1004100090E0089602C0220F331F8A95E2F78EE51E
:1004200091E00E9470048EE591E060E00E946B0410
:10043000DF91CF911F910895F999FECF72BD61BDF3
:10044000F89A80B50895F999FECF1FBA72BD61BDC3
:1004500040BD0FB6F894FA9AF99A0FBE08951F920C
:100460000F920FB60F9211242F933F934F935F93E8
:100470006F937F938F939F93AF93BF932091590175
:1004800030915A0140915B0150915C0170915D0186
:10049000DA01C9010296A11DB11D672F6A5F6D3790
:1004A00030F06D57DA01C9010396A11DB11D6093AB
:1004B0005D018093590190935A01A0935B01B09321
:1004C0005C018091550190915601A0915701B09126
:1004D00058010196A11DB11D8093550190935601BD
:1004E000A0935701B0935801BF91AF919F918F9105
:1004F0007F916F915F914F913F912F910F900FBE20
:100500000F901F9018958FB7F89420915901309152
:100510005A0140915B0150915C018FBFB901CA0142
:1005200008959B01AC017FB7F8948091550190919B
:100530005601A0915701B091580166B5A89B05C01E
:100540006F3F19F00196A11DB11D7FBFBA2FA92FD2
:10055000982F8827860F911DA11DB11D63E0880F7C
:10056000991FAA1FBB1F6A95D1F7BC012DC0FFB709
:10057000F8948091550190915601A0915701B09146
:100580005801E6B5A89B05C0EF3F19F00196A11DE3
:10059000B11DFFBFBA2FA92F982F88278E0F911D4D
:1005A000A11DB11DE3E0880F991FAA1FBB1FEA958B
:1005B000D1F7861B970B885E9340C8F221503040DC
:1005C0004040504068517C4F21153105410551058F
:1005D00071F60895789484B5826084BD84B5816095
:1005E00084BD85B5826085BD85B5816085BDEEE63B
:1005F000F0E0808181608083E1E8F0E0108280811A
:1006000082608083808181608083E0E8F0E0808187
:1006100081608083E1EBF0E0808184608083E0EBA7
:10062000F0E0808181608083EAE7F0E0808184608F
:1006300080838081826080838081816080838081EB
:10064000806880831092C1000895982F882311F448
:1006500092E106C0813011F493E102C08E3008F0BF
:100660009E509770809112018295880F880F807C30
:10067000892B80937C0080917A00806480937A003B
:1006800080917A0086FDFCCF20917800409179001E
:10069000942F80E030E0282B392BC9010895CF93A7
:1006A000DF93482F50E0CA0186569F4FFC013491DA
:1006B0004A575F4FFA018491882369F190E0880FCF
:1006C000991FFC01E859FF4FA591B491FC01EE5828
:1006D000FF4FC591D491662351F42FB7F8948C91B4
:1006E000932F909589238C93888189230BC0623046
:1006F00061F42FB7F8948C91932F909589238C9364
:100700008881832B88832FBF06C09FB7F8948C9174
:10071000832B8C939FBFDF91CF910895482F50E09A
:10072000CA0182559F4FFC012491CA0186569F4FF2
:10073000FC0194914A575F4FFA013491332309F435
:1007400040C0222351F1233071F0243028F42130AD
:10075000A1F0223011F514C02630B1F02730C1F0DD
:100760002430D9F404C0809180008F7703C0809139
:1007700080008F7D8093800010C084B58F7702C089
:1007800084B58F7D84BD09C08091B0008F7703C090
:100790008091B0008F7D8093B000E32FF0E0EE0FEA
:1007A000FF1FEE58FF4FA591B4912FB7F894662321
:1007B00021F48C919095892302C08C91892B8C9384
:1007C0002FBF08951F920F920FB60F9211242F93EF
:1007D0003F934F935F936F937F938F939F93AF93C9
:1007E000BF93EF93FF9380915F0190916001892BFC
:1007F00029F0E0915F01F09160010995FF91EF917F
:10080000BF91AF919F918F917F916F915F914F9128
:100810003F912F910F900FBE0F901F9018951F9230
:100820000F920FB60F9211242F933F934F935F9324
:100830006F937F938F939F93AF93BF93EF93FF93A8
:1008400080915F0190916001892B29F0E0915F0117
:10085000F09160010995FF91EF91BF91AF919F9148
:100860008F917F916F915F914F913F912F910F9059
:100870000FBE0F901F9018951F920F920FB60F92F8
:1008800011242F933F934F935F936F937F938F9395
:100890009F93AF93BF93EF93FF9380915F019091EC
:1008A0006001892B29F0E0915F01F09160010995C9
:1008B000FF91EF91BF91AF919F918F917F916F9138
:1008C0005F914F913F912F910F900FBE0F901F900E
:1008D0001895089508958CE392E00E946E0908959A
:1008E0008CE392E00E9405090895DF93CF9300D036
:1008F0000F92CDB7DEB7FE01319683E0DF011D9286
:100900008A95E9F769834A832B838CE392E0BF01E0
:100910000E948E080F900F900F90CF91DF91089555
:100920001F9353988CE392E00E9474088CE392E04A
:100930000E94490610E01F5F1F3111F480E009C0DA
:1009400061E070E080E090E00E9491024B9BF3CF69
:1009500081E01F910895EF92FF920F931F93CF9321
:10096000DF93EC017A018B0153984A305105610500
:100970007105E8F1CE010E949004882309F03FC080
:1009800091E3E91695E7F90690E0090790E0190769
:10099000F8F0AEE1EA16F1040105110520F4EE24A9
:1009A000FF24870108C082EE9FEFAFEFBFEFE80E94
:1009B000F91E0A1F1B1FCE01B801A7010E94900457
:1009C000E114F10401051105B9F0882311F317C0F2
:1009D0009FE1E916F1040105110508F44EC082EE0D
:1009E0009FEFAFEFBFEFE80EF91E0A1F1B1FC801F4
:1009F000B7010E94910241C0882309F43EC0809152
:100A00007A0000E087FF06C001E080917A008F77CE
:100A100080937A0010E000B607FE04C011E080B7B2
:100A20008F7780BF81E069E674E040E050E00E948B
:100A3000111083B7817F846083BFF8944B9B0DC0F6
:100A400083B7816083BF85B7806685BF8F7D85BF93
:100A50007894889583B78E7F83BF789481E00E94D5
:100A60003410002329F080917A00806880937A0006
:100A7000112319F080B7806880BFDF91CF911F915B
:100A80000F91FF90EF9008950895089508951F9293
:100A90000F920FB60F9211242F933F934F935F93B2
:100AA0006F937F938F939F93AF93BF93CF93DF9376
:100AB000EF93FF938091C00082FD0AC02091C60091
:100AC00040916B0250916C024115510521F410C008
:100AD0008091C600CBC080916A02882319F080E221
:100AE000282706C02D3721F481E080936A02BEC01A
:100AF00080916A028823E9F42E3721F441155105CB
:100B0000C1F008C02F3721F44530510519F411C048
:100B10002D3779F410926A021092690210926802DD
:100B2000109267021092660210926502109264029F
:100B300025C010926A024230510541F143305105FF
:100B400044F44115510589F04130510509F08EC03A
:100B500018C04430510509F445C04430510514F122
:100B60004530510509F082C06EC02E3709F07EC0B5
:100B700081E090E090936C0280936B02109263028C
:100B800075C02093670282E090E058C0109268021E
:100B9000209369028091670281508093670283E00D
:100BA00090E04CC030E08091680290916902282B5F
:100BB000392B3093690220936802409167024150BB
:100BC00040936702232B19F083EF91E002C081E686
:100BD00091E09093650280936402442369F184E07C
:100BE00090E02CC0E0916402F0916502309701F131
:100BF000EF01CB5BDF4F88819981019665E470E05E
:100C00000E94C010AC01E95BFF4F80819181E754E5
:100C1000F0404817590739F088819981E80FF91F8A
:100C200020835983488380916702815080936702B3
:100C3000809167028823D1F485E090E090936C0264
:100C400080936B0213C081E08093630210926C0268
:100C500010926B0210926902109268021092670261
:100C6000109266021092650210926402FF91EF9159
:100C7000DF91CF91BF91AF919F918F917F916F91B4
:100C80005F914F913F912F910F900FBE0F901F904A
:100C90001895FC01809113018823E1F311A20895B6
:100CA0001F920F920FB60F9211242F933F934F93E1
:100CB0005F936F937F938F939F93AF93BF93EF93C4
:100CC000FF932091EF013091F0018091F10190911B
:100CD000F2012817390759F48091C1008F7D809364
:100CE000C1008091C10080648093C10016C0E09172
:100CF000F101F091F201E655FE4F40818091F10142
:100D00009091F201019665E470E00E94C01090930A
:100D1000F2018093F1014093C600FF91EF91BF91E2
:100D2000AF919F918F917F916F915F914F913F9183
:100D30002F910F900FBE0F901F901895CF93DF93B8
:100D4000FB01EC01A881B9816081718144815581E9
:100D50001296ED91FC9113970995DF91CF9108952B
:100D60008F929F92AF92BF92CF92DF92EF92FF92BB
:100D70000F931F9300D000D00F92EDB7FEB73196BE
:100D800084E0ADB7BEB711968C9383E0818387E092
:100D9000828385E0838381E084838CE392E061E653
:100DA00071E04AEA51E025EC30E004EC10E0B0ECF0
:100DB000EB2EF12CA1ECCA2ED12CF2ECAF2EB12CE3
:100DC000E6EC8E2E912C0E94EB098EE191E090933F
:100DD0003D0280933C0283EF91E090935F02809309
:100DE0005E0283E692E0909361028093600210922B
:100DF00063020F900F900F900F900F901F910F9123
:100E0000FF90EF90DF90CF90BF90AF909F908F902A
:100E100008951F920F920FB60F9211242F933F93B4
:100E20004F935F936F937F938F939F93AF93BF93F2
:100E3000EF93FF932091EF013091F0018091F10148
:100E40009091F2012817390761F48DE060E00E946B
:100E50008E038091C1008F7B8093C10081E08093DD
:100E60001301FF91EF91BF91AF919F918F917F916E
:100E70006F915F914F913F912F910F900FBE0F9007
:100E80001F901895FF920F931F93082FF92E162F7E
:100E9000862F8D57833048F4802F6DE70E94060C13
:100EA00060E26127802F9F2D01C0802F0E94060CD9
:100EB0001F910F91FF900895CF92DF92EF92FF92D2
:100EC0000F931F93CF93DF93082FF92EE62E172F42
:100ED0006A01E9012134310518F0CFEFDFEF47C097
:100EE000109213018DE061E00E948E032091EF01CA
:100EF0003091F0018091F1019091F20128173907AA
:100F000031F467E070E080E090E00E949102802F71
:100F10009F2D6EE70E94060CCE018E5F682F802FFA
:100F20009F2D0E944207802F9F2D612F0E94420714
:100F3000802F9F2D6E2D0E94420710E008C0EC0DFF
:100F4000FD1D802F9F2D60810E9442071F5FE12FB2
:100F5000F0E0EC17FD0798F3802F9F2D6FE70E94BC
:100F6000060C6DE070E080E090E00E949102CE01FE
:100F7000DF91CF911F910F91FF90EF90DF90CF9075
:100F80000895AF92BF92CF92DF92EF92FF920F93AC
:100F90001F93DF93CF93CDB7DEB7C054D0400FB6C9
:100FA000F894DEBF0FBECDBF5C016115710519F469
:100FB00000E010E029C07B0100E010E06E01089421
:100FC000C11CD11CF7010894E11CF11C84918823F9
:100FD000A1F0F601E00FF11F80830F5F1F4F003477
:100FE000110581F7C50160E070E0A60120E430E062
:100FF0000E945C0700E010E0E5CFC50160E070E012
:10100000A60198010E945C07C801C05CDF4F0FB6C3
:10101000F894DEBF0FBECDBFCF91DF911F910F912E
:10102000FF90EF90DF90CF90BF90AF900895CF9258
:10103000DF92EF92FF920F931F93CF93DF936C0198
:101040007B01EA016115710519F4C0E0D0E02DC003
:101050004115510551F14134510500F10FE310E004
:1010600020E030E0A701420F531FC801821B930B01
:101070009C01C60160E070E00E945C070C171D0730
:10108000A1F0C801805C9F4FC817D90708F4CE01B2
:101090009801C817D90748F08C01E4CF60E070E0F0
:1010A000A7019E010E945C07EC01CE01DF91CF9168
:1010B0001F910F91FF90EF90DF90CF900895DF93F5
:1010C000CF930F92CDB7DEB7698360E070E0AE01D9
:1010D0004F5F5F4F21E030E00E945C0781E090E0CD
:1010E0000F90CF91DF910895DF93CF9300D000D080
:1010F000CDB7DEB749835A836B837C8360E070E3AE
:10110000AE014F5F5F4F24E030E00E945C070F901C
:101110000F900F900F90CF91DF910895AB0161E098
:1011200070E223E030E00E945C070895AF92BF9226
:10113000CF92DF92EF92FF920F931F93CF93DF93A3
:10114000EC01F894EAA1FBA1DF01A95BBF4F119666
:101150001C921E928D919C91EB5BFF4F918380833B
:10116000ECA1FDA110827894CE010E945C070E9440
:101170008302688779878A879B87ECA1FDA180819C
:101180008823D9F50E948302288539854A855B85A5
:10119000621B730B840B950B6A157B058C059D05F3
:1011A00060F5EBCF4AA15BA1FA01EB5BFF4F8081B9
:1011B0009181D7012D913C918217930710F42081E2
:1011C0003181C801BA01A9010E94EE00EAA1FBA188
:1011D000EB5BFF4F80819181F7019183808320E059
:1011E00030E0C901DF91CF911F910F91FF90EF90F7
:1011F000DF90CF90BF90AF900895ECA1FDA18081CA
:10120000882381F62FEF3FEFECCF2F923F924F9242
:101210005F926F927F928F929F92AF92BF92CF9286
:10122000DF92EF92FF920F931F93DF93CF93CDB78F
:10123000DEB7A3970FB6F894DEBF0FBECDBF4C014B
:101240001B012A01390181E290E09A838983C4015C
:1012500060E175E040E050E020E030E08E010D5F9D
:101260001F4F7E010894E11CF11CE4E6AE2EB12C68
:10127000C12CD12C0E949608892BB9F4F40186A1C7
:10128000882319F460E475E002C061E175E029810A
:101290003A817E866D865C864B863A862986C401B5
:1012A000AE014D5F5F4F0E945C07A3960FB6F894A6
:1012B000DEBF0FBECDBFCF91DF911F910F91FF9089
:1012C000EF90DF90CF90BF90AF909F908F907F90E6
:1012D0006F905F904F903F902F9008957F928F92E4
:1012E0009F92AF92BF92CF92DF92EF92FF920F93B5
:1012F0001F93DF93CF93CDB7DEB7A3970FB6F894C4
:10130000DEBF0FBECDBF4C01762E81E290E09A8306
:101310008983C40160E175E040E050E020E030E006
:101320008E010D5F1F4F7E010894E11CF11CF4E655
:10133000AF2EB12CC12CD12C0E949608892B91F490
:10134000F40186A1882319F460E475E002C061E12C
:1013500075E029813A817886C401AE014D5F5F4F07
:101360000E945C07A3960FB6F894DEBF0FBECDBFF8
:10137000CF91DF911F910F91FF90EF90DF90CF9071
:10138000BF90AF909F908F907F9008950F931F9381
:101390008C0140E051EE60E070E00E942F0A8DE089
:1013A00061E00E944F0341E0F80146A32091EF0164
:1013B0003091F0018091F1019091F20128173907E5
:1013C00031F4409313018DE060E00E948E031F9181
:1013D0000F91089508958F929F92AF92BF92CF92EE
:1013E000DF92EF92FF920F931F93DF93CF93CDB7CE
:1013F000DEB7FC011382128288EE93E0A0E0B0E039
:1014000084839583A683B78388E391E09183808367
:101410007587648757874687318B208B138B028BA8
:10142000F58AE48AD78AC68AB18EA08E938E828E80
:101430008F85848F8889858F8989868F8A89878F10
:101440008B8980A3CF91DF911F910F91FF90EF9037
:10145000DF90CF90BF90AF909F908F900895AF9204
:10146000BF92DF92EF92FF920F931F93CF93DF9380
:10147000EC017A018B01DD24D39491E0A92EB12CEB
:10148000EC89FD89DD2069F0C50108A002C0880F44
:10149000991F0A94E2F7808360E874E88EE190E097
:1014A00005C0108260E472E48FE090E0A80197012B
:1014B0000E94D410215030404040504056954795EE
:1014C0003795279580E12030380720F0DD2011F096
:1014D000DD24D6CFE889F9893083EA89FB89208326
:1014E00019A2EE89FF89408121E030E0C9010C8C0E
:1014F00002C0880F991F0A94E2F7482B4083EE89B7
:10150000FF894081C9010D8C02C0880F991F0A9480
:10151000E2F7482B4083EE89FF894081C9010E8C98
:1015200002C0880F991F0A94E2F7482B4083EE8986
:10153000FF8980810F8C02C0220F331F0A94E2F7CB
:10154000209528232083DF91CF911F910F91FF9049
:10155000EF90DF90BF90AF900895AF92BF92CF927F
:10156000DF92EF92FF920F931F93CF93DF93EC01E3
:101570007A018B01C22EDD24D39471E0A72EB12C09
:10158000EC89FD89DD2069F0C50108A002C0880F43
:10159000991F0A94E2F7808360E874E88EE190E096
:1015A00005C0108260E472E48FE090E0A80197012A
:1015B0000E94D410215030404040504056954795ED
:1015C0003795279580E12030380720F0DD2011F095
:1015D000DD24D6CFE889F9893083EA89FB89208325
:1015E000E88DF98DC082EE89FF89408121E030E0ED
:1015F000C9010C8C02C0880F991F0A94E2F7482B8E
:101600004083EE89FF894081C9010D8C02C0880F9B
:10161000991F0A94E2F7482B4083EE89FF894081A5
:10162000C9010E8C02C0880F991F0A94E2F7482B5B
:101630004083EE89FF8980810F8C02C0220F331F07
:101640000A94E2F7209528232083DF91CF911F9100
:101650000F91FF90EF90DF90CF90BF90AF900895E3
:10166000CF93DF93DC011E968D919C911F97EC0127
:10167000CB5BDF4FFC01E95BFF4F28813981808123
:10168000918128173907C9F75696ED91FC91579724
:10169000408121E030E0C9015C960C905C9702C06B
:1016A000880F991F0A94E2F78095842380835696C9
:1016B000ED91FC9157974081C9015D960C905D9723
:1016C00002C0880F991F0A94E2F7809584238083D3
:1016D0005696ED91FC9157974081C9015E960C900A
:1016E0005E9702C0880F991F0A94E2F780958423C1
:1016F00080835696ED91FC91579780815F960C9070
:101700005F9702C0220F331F0A94E2F72095282327
:1017100020831C96ED91FC911D97E95BFF4F808122
:10172000918192938293DF91CF910895DC011C9671
:10173000ED91FC911D97EB5BFF4F81919191208181
:1017400031818B5B9F4F821B930B65E470E00E949D
:10175000C0100895DC011C96ED91FC911D97EB5B88
:10176000FF4F20813181E554F040DF01A95BBF4F7D
:101770008D919C9111972817390719F42FEF3FEF9E
:1017800007C08D919C91E80FF91F8081282F30E0D0
:10179000C9010895CF93DF93DC011C96ED91FC9174
:1017A0001D97EB5BFF4F20813181E554F040EF0145
:1017B000C95BDF4F888199812817390719F42FEF0A
:1017C0003FEF10C088819981E80FF91F408188811F
:1017D0009981019665E470E00E94C0109983888326
:1017E000242F30E0C901DF91CF910895DC0191965B
:1017F0008C919197882339F05496ED91FC915597EF
:10180000808186FFF9CF91961C920895CF93DF9344
:10181000EC01462FEE85FF85EB5BFF4F80819181C8
:10182000E554F040019665E470E00E94C0109C0110
:10183000DF01A95BBF4F8D919C9111972817390744
:10184000D1F3EB5BFF4F80819181E554F040E80FCD
:10185000F91F4083EE85FF85EB5BFF4F31832083CB
:10186000EE89FF89208181E090E00F8C02C0880F13
:10187000991F0A94E2F7282B208381E089A3EC8941
:10188000FD8980818064808381E090E0DF91CF9149
:101890000895CF93DF930E94EA028CB58F7B8CBDB5
:1018A0008CE392E00E94C6090E94B001CAEED9E022
:1018B0000E9424012097E1F30E94EA09F9CFCF9218
:1018C000DF92EF92FF920F931F93CF93DF937C01F0
:1018D0006B018A01C0E0D0E00FC0D6016D916D01AF
:1018E000D701ED91FC910190F081E02DC7010995A0
:1018F000C80FD91F015010400115110571F7CE0115
:10190000DF91CF911F910F91FF90EF90DF90CF90DB
:101910000895EF92FF920F931F93CF93DF937C0173
:101920008B01C0E0D0E0F8010F5F1F4F6491662388
:1019300059F0D701ED91FC910190F081E02DC701A4
:101940000995C80FD91FEFCFCE01DF91CF911F911D
:101950000F91FF90EF900895DC01ED91FC910190C3
:10196000F081E02D09950895CF93DF93EC01611587
:10197000710519F420E030E00FC0DB010D9000206C
:10198000E9F71197A61BB70BE881F9810280F38173
:10199000E02DAD0109959C01C901DF91CF9108951A
:1019A0000E94B40C0895AF92BF92CF92DF92EF9253
:1019B000FF920F931F93CF93DF935C016B01EE2493
:1019C000FF24C0E0D0E010C0D501ED91FC91008172
:1019D0001181C601BE010E94300D682FC501F801BA
:1019E0000995E80EF91E2196F60184819581C817A4
:1019F000D90750F3C701DF91CF911F910F91FF904D
:101A0000EF90DF90CF90BF90AF900895EF92FF924C
:101A10000F931F937B018C01611571058105910561
:101A200029F420E030E040E050E00BC00E94E000EC
:101A3000A80197010E94F610AC01CB01DA019C01CC
:101A4000AD01B901CA011F910F91FF90EF90089568
:101A5000009729F0BC0180E090E00E94E500089525
:101A6000FC01848195816817790748F40190F08121
:101A7000E02D309721F0E60FF71F8081089580E078
:101A800008950F931F93CF93DF93EC018B016F5F4A
:101A90007F4F888199810E94300F009711F480E078
:101AA00005C0998388831B830A8381E0DF91CF91EE
:101AB0001F910F910895CF93DF93EC018881998155
:101AC000892B29F08A819B818617970760F4CE01C4
:101AD0000E94410D882341F08C819D81892B19F44E
:101AE000E881F981108281E0DF91CF910895CF9351
:101AF000DF93EC0188819981009711F00E94980E84
:101B0000198218821D821C821B821A82DF91CF915A
:101B10000895EF92FF920F931F93CF93DF93EC0101
:101B20007B018A01BA010E945B0D882321F4CE015A
:101B30000E94770D07C01D830C8388819981B701AE
:101B40000E94F700CE01DF91CF911F910F91FF907E
:101B5000EF9008950F931F93182F092F61157105AA
:101B600059F0DB010D900020E9F71197A61BB70B88
:101B7000AD010E94890D02C00E94770D812F902F28
:101B80001F910F910895EF92FF920F931F93DF9390
:101B9000CF93CDB7DEB729970FB6F894DEBF0FBE4F
:101BA000CDBF8C01862FF801118210821382128220
:101BB00015821482168290E07E010894E11CF11CCB
:101BC000B70150E00E94FE00C801B7010E94AA0DB3
:101BD00029960FB6F894DEBF0FBECDBFCF91DF912F
:101BE0001F910F91FF90EF900895FC0180819181EA
:101BF0000E94980E08950F931F93CF93DF93BC011B
:101C00008230910510F462E070E0E0917302F0918F
:101C10007402A0E0B0E040E050E024C080819181F7
:101C200086179707D0F08617970771F48281938102
:101C3000109729F013969C938E9312972CC0909333
:101C400074028093730227C04115510519F084175F
:101C5000950718F4EF018D01AC01DF0182819381BA
:101C60009C01F9013097D1F641155105F9F0CA01EF
:101C7000861B970B8430910580F48A819B81011526
:101C8000110521F0F8019383828304C090937402BC
:101C900080937302FE01329645C0FE01E80FF91FE2
:101CA000619371930297998388833CC080917102FC
:101CB00090917202892B41F4809116019091170145
:101CC0009093720280937102409118015091190112
:101CD0004115510541F44DB75EB7809114019091C3
:101CE0001501481B590B2091710230917202241783
:101CF0003507B0F4CA01821B930B8617970780F053
:101D0000AB014E5F5F4F8417950750F0420F531F92
:101D10005093720240937102F9016193719302C072
:101D2000E0E0F0E0CF01DF91CF911F910F91089596
:101D3000CF93DF939C01009709F48FC0EC012297A9
:101D40001B821A8260917302709174026115710591
:101D500081F488819981820F931F209171023091C3
:101D600072022817390739F5D0937202C0937102B5
:101D700074C0DB0140E050E0AC17BD0708F1BB8345
:101D8000AA83FE0121913191E20FF31FAE17BF0725
:101D900079F48D919C911197280F391F2E5F3F4F39
:101DA0003983288312968D919C9113979B838A8304
:101DB0004115510571F4D0937402C09373024DC064
:101DC00012968D919C911397AD01009711F0DC0153
:101DD000D3CFDA011396DC93CE931297FA012191B7
:101DE0003191E20FF31FCE17DF0769F488819981E3
:101DF000280F391F2E5F3F4FFA01318320838A81DC
:101E00009B8193838283E0E0F0E0DB0112968D9169
:101E10009C911397009719F0BC01FD01F6CFAB011F
:101E20004E5F5F4FDB018D919C91840F951F209138
:101E30007102309172022817390779F4309729F42A
:101E4000109274021092730202C0138212824250E6
:101E500050405093720240937102DF91CF910895E8
:101E60006F927F928F929F92AF92BF92CF92DF92AA
:101E7000EF92FF920F931F93CF93DF938C01009704
:101E800029F4CB010E94FB0D8C01BBC08EEFE82E24
:101E90008FEFF82EE00EF11E4801860E971E8E146D
:101EA0009F0408F4ACC0D7014D915C91119746177F
:101EB0005707B8F04530510508F4A3C0CA0104978C
:101EC0008617970708F49DC042505040461B570B99
:101ED000F401419351936D937C93CF010E94980E2E
:101EE00090C05B01A41AB50A3801640E751EA0915A
:101EF0007302B0917402CC24DD24E0E0F0E047C02E
:101F0000A615B705A9F5CD91DC911197CE010296E2
:101F10008A159B0568F1CE018A199B0902961296D3
:101F20002C91129713963C91059758F0F401228357
:101F30003383CA19DB09D183C083D7016D937C93A6
:101F400009C04E5F5F4F4C0F5D1FF7015183408307
:101F5000C901FC01C114D10431F0D6011396FC93E0
:101F6000EE9312974EC0F0937402E093730249C04F
:101F70008D919C911197E817F90708F4FC016D0108
:101F800012968C91129713969C919C01D9011097EF
:101F900009F0B6CF80917102909172028615970573
:101FA000E9F4E617F707D0F42091180130911901F0
:101FB0002115310541F42DB73EB780911401909160
:101FC0001501281B390B82169306C8F490927202F1
:101FD00080927102F7017183608313C0CB010E946C
:101FE000FB0DEC01009759F0D7014D915C91B801C0
:101FF0000E94EE00C8010E94980E8E0102C000E00F
:1020000010E0C801DF91CF911F910F91FF90EF90E9
:10201000DF90CF90BF90AF909F908F907F906F9008
:102020000895823000F5E82FF0E0EE0FFF1FE3592E
:10203000FD4F71836083882319F08130A1F408C0BB
:10204000809169008C7F842B80936900E89A0895C1
:1020500080916900440F551F440F551F837F842BC7
:1020600080936900E99A0895823080F4882319F0FA
:10207000813021F402C0E89801C0E998E82FF0E02F
:10208000EE0FFF1FE359FD4F1182108208951F923A
:102090000F920FB60F9211242F933F934F935F939C
:1020A0006F937F938F939F93AF93BF93EF93FF9320
:1020B00080916D0290916E02892B29F0E0916D0262
:1020C000F0916E020995FF91EF91BF91AF919F91B1
:1020D0008F917F916F915F914F913F912F910F90D1
:1020E0000FBE0F901F9018951F920F920FB60F9270
:1020F00011242F933F934F935F936F937F938F930D
:102100009F93AF93BF93EF93FF9380916F02909152
:102110007002892B29F0E0916F02F091700209950D
:10212000FF91EF91BF91AF919F918F917F916F91AF
:102130005F914F913F912F910F900FBE0F901F9085
:102140001895629FD001739FF001829FE00DF11DF1
:10215000649FE00DF11D929FF00D839FF00D749F21
:10216000F00D659FF00D9927729FB00DE11DF91FCD
:10217000639FB00DE11DF91FBD01CF01112408952A
:10218000AA1BBB1B51E107C0AA1FBB1FA617B7079D
:1021900010F0A61BB70B881F991F5A95A9F78095B9
:1021A0009095BC01CD010895A1E21A2EAA1BBB1B7C
:1021B000FD010DC0AA1FBB1FEE1FFF1FA217B30713
:1021C000E407F50720F0A21BB30BE40BF50B661F29
:1021D000771F881F991F1A9469F7609570958095ED
:1021E00090959B01AC01BD01CF01089597FB092E8D
:1021F00005260ED057FD04D0D7DF0AD0001C38F4D6
:1022000050954095309521953F4F4F4F5F4F089522
:10221000F6F790958095709561957F4F8F4F9F4F02
:102220000895EE0FFF1F0590F491E02D09942F9271
:102230003F924F925F926F927F928F929F92AF9256
:10224000BF92CF92DF92EF92FF920F931F93CF93A3
:10225000DF93CDB7DEB7CA1BDB0B0FB6F894DEBF3A
:102260000FBECDBF09942A88398848885F846E8460
:102270007D848C849B84AA84B984C884DF80EE80AA
:10228000FD800C811B81AA81B981CE0FD11D0FB6B3
:10229000F894DEBF0FBECDBFED010895F894FFCFD7
:1022A000556E697175652049443A20307800010007
:1022B00000000101800075020000000000005F08BE
:1022C0001708C1079E06960BCA0BAA0B49064405C0
:1022D0004505460500000000060C5F0C890CD30C78
:0E22E000960BCA0BAA0BF60B2F0AAD0A300B99
:00000001FF
